:03000000020100FA
:03000B000202B43A
:03001B000202C618
:100100007522027539F075813A79507703097700C5
:100110000975800075900075A00075B0001204E3A9
:1001200075A00075A0FF75A01F517E7580385173B2
:1001300075800C517375800651735105517375802C
:10014000805173314780FCC2D4C2D320003FE522E6
:10015000B4013C9005357580805173518690053F00
:100160007580C0517351867580C65173E539B4F0FE
:100170000675F00C21912275F00C84B4000674020F
:1001800051912191B4020A740151912191417E4112
:100190001AE5F0B40C06900576518622B40B069051
:1001A0000572518622B40A0690056E518622B40962
:1001B0000690056A518622B408069005665186228B
:1001C000B40706900562518622B4060690055E517A
:1001D0008622B4050690055A518622B4040690057D
:1001E00056518622B40306900552518622B4020667
:1001F00090054E518622B4010690054A5186229000
:10020000054651862290058375804851735186902A
:10021000057A7580505173518622B4022B90058C5B
:1002200075808051735186E537B4000590059A4179
:100230003EB401059005A2413E9005A8413E75805F
:10024000C65173518651612230030C9005AE758002
:0D025000805173518641619005BB7580801F
:10025D00517351867580C05173AB35519E743A51AF
:10026D0091AB36519E22C2A3C2A4C2A551AED2A556
:10027D0022C2007580015173227A00EA9351910ACE
:10028D00B400F822F580D2A3C2A4C2A551AED2A566
:10029D0022EB75F00A8424305191E5F02430519110
:1002AD00227F1EDFFE2222C0E085318C85328A201E
:1002BD00040241C3B2A6D0E032C0E0C0D0C082C0BB
:1002CD0083C2D4D2D3E4758DB1758BDFD53435753A
:1002DD0034051203D1E52220E00620E12B20E22691
:1002ED00E539FDB4FF08C204C207D2026194B4F02F
:1002FD0004C20461949004ED93F531ED90051193D2
:10030D00F532619461C86162200246200143D20436
:10031D00E537B400059005C36134B401059006249A
:10032D0061349006B56134713A715A41F0E5367514
:10033D00F00A842582F582E43583F583E53575F081
:10034D000AA42582F582E5F03583F58322E493FD39
:10035D0022C20441F0300312900000713AE539F0E9
:10036D00FDA374FFF0D204ED41F0200704C2046137
:0C037D00C8900000713A7189D20441F070
:10038900E0FD2220070E20030B61C82012F5200191
:100399002E20060EE53694645016E5362405F5360A
:1003A90061C8E53694645008E536240AF53661C813
:1003B900753600E53504B4640261C8F53561C8D005
:1003C90083D082D0D0D0E0327AFE7B008AB02090F0
:1003D90005740002040720910574010204072092A4
:1003E900057402020407209305740302040720948C
:1003F90005740402040720951774050204072B9459
:100409001D502EC3241DF539301022D204020436A2
:10041900EB2406FBEA30E50523FA0203D520100593
:10042900201202C2047539F020050E813675903FFD
:1004390022F530D205C2048136C205E53060EE7579
:100449003000B4041DE52220E20723F522916181E1
:100459003675220191618136753500753600752032
:100469000122D200B406103012C3B20375350075EB
:1004790036007539FF8136B405072010B0B2068100
:1004890036B403133011A6E537940350A0C3E537FA
:1004990004F53791618136B4010E301190E537606A
:1004A9008C14F53791618136201006B201B20781AB
:1004B9003675903F2275FFDE75FFAD22758E187572
:1004C9008850758911758AF5758BEF758CFF758D57
:0104D900D84A
:1004DA002275A80AD288D2AF221204BE1204C5120B
:1004EA0004DB22F8F8F9F9FAFAFAFBFBFBFBFCFC4D
:1004FA00FCFCFCFDFDFDFDFDFDFDFEFEFEFEFEFE1F
:10050A00FEFEFEFEFEFEFF8C8F5BB81567B9044A3D
:10051A0090BC0C4479ACDC09345C82A6C8E705219E
:10052A003C556D849AADC0D2E3F302504C41592038
:10053A004D4F44450042454154533A00446F200010
:10054A00446F230052652000526523004D69200044
:10055A004661200046612300536F2000536F230039
:10056A004C6120004C6123005869200020202000A3
:10057A001F1F1F0E0E040404000404040E0E1F1F86
:10058A001F0054494D4520207C4D757369633A001C
:10059A00414F20484152550054484F4E47004E4162
:1005AA004D4533005245434F5244494E472E2E2E55
:1005BA0000504C4159494E470023211D19F0F0F0D3
:1005CA00F0F0F0F0F023211D19F0F0F0F0F0F0F067
:1005DA00F023211D19F0F0F0F0F0F0F0F0171B1FD6
:1005EA0021F0F0F0F0F0F0F0F023211D19F0F0F016
:1005FA00F0F0F0F0F023211D19F0F0F0F0F0F0F037
:10060A00F023211D19F0F0F0F0F0F0F0F0171B1FA5
:10061A0021F0F0F0F0F0F0F0F0FFF0F0F0F0F0F090
:10062A00F0F0F0F01C1C1C1C1F1F2121212121218C
:10063A001F211F1F1C1C1A1A1F1F1C1C1C1C1C1CE0
:10064A001C1CF0F01C1C1C1C1F1F21212121212114
:10065A001F21232323232121232321212121212176
:10066A002121F0F01F211F1F1C1C1A1A1A1A1A1A0C
:10067A001A1AF0F01F211F1F1A1A1818181818181A
:10068A001818F0F01515151517171818181818183E
:10069A001A1A1717171717171515151515151515EA
:1006AA0015151515151515151515FFF0F0F0F0F0BF
:1006BA00F0F0F0F0F01C1C1C1C1F1F21212121212D
:1006CA00211F211F1F1C1C1A1A1F1F1C1C1C1C1C4B
:1006DA001C1C1CF0F01C1C1C1C1F1F212121212189
:1006EA00211F2123232323212123232121212121E6
:1006FA00212121F0F01F211F1F1C1C1A1A1A1A1A75
:10070A001A1A1AF0F01F211F1F1A1A181818181887
:10071A00181818F0F01414141417171818181818B1
:10072A00181A1A1717171717171515151515151556
:09073A00151515141414141EFF0A
:00000001FF
