:03000000020100FA
:03000B000202B13D
:03001B000202C31B
:1001000075220175813A7950770309770009758066
:100110000075900075A00075B0001204E075A00095
:1001200075A0FF75A01F517B758038517075800CCC
:1001300051707580065170510251707580805170F8
:10014000314480FCC2D4C2D320003FE522B4013C3C
:100150009005327580805170518390053C7580C048
:10016000517051837580C65170E539B4F00675F051
:100170000C218E2275F00C84B400067402518E217D
:100180008EB4020A7401518E218E417B4117E5F035
:10019000B40C06900573518322B40B0690056F5181
:1001A0008322B40A0690056B518322B40906900598
:1001B00067518322B40806900563518322B4070671
:1001C00090055F518322B4060690055B518322B4EB
:1001D0000506900557518322B404069005535183B8
:1001E00022B4030690054F518322B4020690054BBA
:1001F000518322B401069005475183229005435153
:1002000083229005807580485170518390057775E1
:1002100080505170518322B4022B900589758080E3
:1002200051705183E537B40005900596413BB40108
:100230000590059E413B9005A4413B7580C65170D9
:100240005183515E2230030C9005AA758080517055
:0C0250005183415E9005B77580805170AD
:10025C0051837580C05170AB35519B743A518EAB44
:10026C0036519B22C2A3C2A4C2A551ABD2A522C2B5
:10027C00007580015170227A00EA93518E0AB40005
:10028C00F822F580D2A3C2A4C2A551ABD2A522EB11
:10029C0075F00A842430518EE5F02430518E227F83
:1002AC001EDFFE2222C0E085318C85328A200402BA
:1002BC0041C0B2A6D0E032C0E0C0D0C082C083C280
:1002CC00D4D2D3E4758DB1758BDFD5343575340547
:1002DC001203CEE52220E00620E12B20E226E539B0
:1002EC00FDB4FF08C204C207D2026190B4F004C28C
:1002FC000461909004EA93F531ED90050E93F5327C
:10030C00619061C5615E200245200142D204E5374F
:10031C00B400059005BF6131B4010590062461312C
:10032C0090067F61317137715641EDE53675F00AF3
:10033C00842582F582E53575F00A843583740AA428
:10034C002582F582E43583F58322E493FD22C204F1
:10035C0041ED3003129000007137E539F0FDA374C4
:10036C00FFF0D204ED41ED200704C20461C59000FA
:0A037C000071377185D20441EDE0F5
:10038600FD2220070E20030B61C52012F520012F48
:10039600200612E5362405B4691D753600E53504D8
:1003A600B4641861C5E536240AB46E0B753600E5EB
:1003B6003504B4640661C5F53661C5F53561C5D049
:1003C60083D082D0D0D0E0327AFE7B008AB02090F3
:1003D60005740002040420910574010204042092AD
:1003E6000574020204042093057403020404209495
:1003F60005740402040420951774050204042B9462
:100406001D502EC3241DF539301022D204020433A8
:10041600EB2406FBEA30E50523FA0203D220100599
:10042600201202C2047539F020050E813375903F03
:1004360022F530D205C2048133C205E53060EE757F
:100446003000B4041DE52220E20723F522915E81E7
:1004560033752201915E813375350075360075203E
:100466000122D200B406103012C3B20375350075EE
:1004760036007539FF8133B405072010B0B2068106
:1004860033B403133011A6E537940350A0C3E53700
:1004960004F537915E8133B4010E301190E5376073
:1004A6008C14F537915E8133201006B201B20781B4
:1004B6003375903F2275FFDE75FFAD22758E187578
:1004C6008850758911758AF5758BEF758CFF758D5A
:0504D600D82275A80A00
:1004DB00D288D2AF221204BB1204C21204D822F863
:1004EB00F8F9F9FAFAFAFBFBFBFBFCFCFCFCFCFD54
:1004FB00FDFDFDFDFDFDFEFEFEFEFEFEFEFEFEFE17
:10050B00FEFEFF8C8F5BB81567B9044A90BC0C4498
:10051B0079ACDC09345C82A6C8E705213C556D84B7
:10052B009AADC0D2E3F302504C4159204D4F444594
:10053B000042454154533A00446F2000446F23005E
:10054B0052652000526523004D6920004661200052
:10055B0046612300536F2000536F23004C61200032
:10056B004C61230058692000202020001F1F1F0E04
:10057B000E040404000404040E0E1F1F1F00544934
:10058B004D4520206D757369633A00414F204841FA
:10059B005255004E414D4532004E414D45330052B0
:1005AB0045434F5244494E472E2E2E00504C415935
:1005BB00494E4700F0F0F0F023211D19F0F0F0F058
:1005CB00F0F0F0F023211D19F0F0F0F0F0F0F0F066
:1005DB0023211D19F0F0F0F0F0F0F0F0171B1F21A4
:1005EB00F0F0F0F0F0F0F0F023211D19F0F0F0F046
:1005FB00F0F0F0F023211D19F0F0F0F0F0F0F0F036
:10060B0023211D19F0F0F0F0F0F0F0F0171B1F2173
:10061B00F0F0F0F0F0F0F0F0FF1E1D1C1B1A191893
:10062B0017161514131211100F0E0D0C0B0A0908C7
:10063B00070605040302011E1D1C1B1A19181716A9
:10064B001514131211100F0E0D0C0B0A09080706C7
:10065B0005040302011E1D1C1B1A1918171615146D
:10066B00131211100F0E0D0C0B0A090807060504C7
:10067B00030201FF1E1D1C1B1A1918171615141344
:10068B001211100F0E0D0C0B0A09080706050403B7
:10069B0002010102030405060708090A0B0C0D0EE3
:1006AB000F101112131415161718191A1B1C1D1ED7
:1006BB001E1D1C1B1A19181716151413121110FFD7
:00000001FF
