:03000000020100FA
:03000B000201FBF4
:03001B0002020DD1
:1001000075220175813A7950770309770009758066
:100110000075900075A00075B00012041375A00062
:1001200075A0FF75A01F31C575803831BA75800C78
:1001300031BA75800631BA75808031BA314080FCA1
:10014000C2D4C2D320007EE522B4011590046575A7
:10015000808031BA31CD9004767580C031BA31CD0E
:1001600022B4022B90047C75808031BA31CDE53702
:10017000B4000590048C2185B40105900494218578
:1001800090049A21857580C631BA31CD31A82230CC
:10019000030C9004A075808031BA31CD21A8900461
:1001A000AD75808031BA31CD7580C031BAAB353193
:1001B000E5743A31D8AB3631E522C2A3C2A4C2A558
:1001C00031F5D2A522C20075800131BA227A00EA47
:1001D0009331D80AB400F822F580D2A3C2A4C2A5F4
:1001E00031F5D2A522EB75F00A84243031D8E5F040
:1001F000243031D8227F1EDFFE2222C0E085318CE0
:1002000085328A200402410AB2A6D0E032C0E0C0A2
:10021000D0C082C083C2D4D2D3E4758DB1758BDFD8
:10022000D53435753405120301E52220E00620E1BE
:100230002920E272E539FDB4FF08C204C207D202E8
:0902400041D8B4F004C20441D815
:1002490090041D93F531ED90044193F53241D84165
:10025900F8200245200142D204E537B40009900490
:10026900B5517F519E4137B4010990051A517F510B
:100279009E4137900575E53675F00A842582F58229
:10028900E53575F00A843583740AA42582F582E47C
:100299003583F58322E493FD22C2044137300312EA
:1002A900900000517FE539F0FDA374FFF0D204ED11
:1002B9004137200704C20441F8900000517F51CD15
:1002C900D2044137E0FD2220070B20030841F82022
:1002D90012F520011AE5362405B4690B753600E5D7
:1002E9003504B4640641F8F53641F8F53541F8D0DE
:1002F90083D082D0D0D0E0327AFE7B008AB02090C1
:100309000574000203372091057401020337209216
:1003190005740202033720930574030203372094FE
:1003290005740402033720951774050203372B94CB
:100339001D502EC3241DF539301022D20402036644
:10034900EB2406FBEA30E50523FA02030520100534
:10035900201202C2047539F020050E616675903FBE
:1003690022F530D205C2046166C205E53060EE753A
:0B0379003000B4041DE52220E2072341
:10038400F52271916166752201719161667535007E
:1003940075360075200122D200B406103012C3B2A3
:1003A400037535007536007539FF6166B40507209D
:1003B40010B0B2066166B403133011A6E537940396
:1003C40050A0C3E53704F53771916166B4010E306E
:1003D4001190E537608C14F5377191616620100631
:1003E400B201B207616675903F2275FFDE75FFADFD
:1003F40022758E18758850758911758AF5758BEF7D
:10040400758CFF758DD82275A80AD288D2AF2212B6
:1004140003EE1203F512040B22F8F8F9F9FAFAFACA
:10042400FBFBFBFBFCFCFCFCFCFDFDFDFDFDFDFD05
:10043400FEFEFEFEFEFEFEFEFEFEFEFEFF8C8F5B5B
:10044400B81567B9044A90BC0C4479ACDC09345C37
:1004540082A6C8E705213C556D849AADC0D2E3F36A
:1004640002426561743A20202020206D6F64653A51
:10047400320054696D653A006D757369633A2020E2
:1004840020206D6F64653A00414F20484152550069
:100494004E414D4532004E414D4533005245434F88
:1004A4005244494E472E2E2E00504C4159494E4736
:1004B40000F0F0F0F023211D19F0F0F0F0F0F0F06E
:1004C400F023211D19F0F0F0F0F0F0F0F023211DDD
:1004D40019F0F0F0F0F0F0F0F0171B1F21F0F0F03D
:1004E400F0F0F0F0F023211D19F0F0F0F0F0F0F04E
:1004F400F023211D19F0F0F0F0F0F0F0F023211DAD
:1005040019F0F0F0F0F0F0F0F0171B1F21F0F0F00C
:10051400F0F0F0F0F0FF1E1D1C1B1A191817161529
:1005240014131211100F0E0D0C0B0A0908070605FF
:10053400040302011E1D1C1B1A1918171615141387
:100544001211100F0E0D0C0B0A09080706050403FF
:1005540002011E1D1C1B1A1918171615141312114B
:10056400100F0E0D0C0B0A090807060504030201FF
:10057400FF1E1D1C1B1A191817161514131211101F
:100584000F0E0D0C0B0A09080706050403020101EE
:1005940002030405060708090A0B0C0D0E0F1011BF
:1005A40012131415161718191A1B1C1D1E1E1D1CB8
:0D05B4001B1A19181716151413121110FF39
:00000001FF
